:020000040000FA
:100000000C945D000C9485000C9485000C94850084
:100010000C9485000C9485000C9485000C9485004C
:100020000C9485000C9485000C9485000C9485003C
:100030000C9485000C9485000C9485000C9485002C
:100040000C9466030C9485000C9485000C94850038
:100050000C9485000C9485000C9485000C9485000C
:100060000C9485000C9485000000000024002700FB
:100070002A0000000000250028002B0004040404CE
:100080000404040402020202020203030303030342
:10009000010204081020408001020408102001021F
:1000A00004081020000000080002010000030407FB
:1000B0000000000000000000200511241FBECFEF4B
:1000C000D8E0DEBFCDBF11E0A0E0B1E0E4EAFDE0A2
:1000D00002C005900D92A835B107D9F721E0A8E537
:1000E000B1E001C01D92AF37B207E1F710E0CDE5F6
:1000F000D0E004C02197FE010E94CA06CC35D1078A
:10010000C9F70E94B0030C94D0060C940000AF9283
:10011000BF92CF92DF92EF92FF920F931F93CF93F4
:10012000DF936C017B018B01040F151FEB015E0156
:10013000AE18BF08C017D10759F06991D601ED91EB
:10014000FC910190F081E02DC6010995892B79F78A
:10015000C501DF91CF911F910F91FF90EF90DF903C
:10016000CF90BF90AF90089590E0FC01EC55FF4F09
:100170002491FC01E057FF4F3491FC01E458FF4FFC
:10018000E491EE23C9F0222339F0233001F1A8F4E1
:10019000213019F1223029F1F0E0EE0FFF1FEE5867
:1001A000FF4FA591B4918FB7F894EC91611126C0DF
:1001B00030953E233C938FBF08952730A9F0283017
:1001C000C9F0243049F7809180008F7D03C0809171
:1001D00080008F7780938000DFCF84B58F7784BDD8
:1001E000DBCF84B58F7DFBCF8091B0008F7780937C
:1001F000B000D2CF8091B0008F7DF9CF3E2BDACF07
:10020000CF93DF9390E0FC01E057FF4F2491845897
:100210009F4FFC0184918823D1F090E0880F991FB3
:10022000FC01E859FF4FA591B491FC01EE58FF4F36
:10023000C591D49161110EC09FB7F8948C91E22FB3
:10024000E0958E238C932881E223E8839FBFDF9182
:10025000CF9108958FB7F894EC91E22BEC938FBF78
:10026000F6CF3FB7F89480915D0190915E01A09127
:100270005F01B091600126B5A89B05C02F3F19F022
:100280000196A11DB11D3FBFBA2FA92F982F882716
:10029000BC01CD01620F711D811D911D42E0660FF1
:1002A000771F881F991F4A95D1F708958F929F92C3
:1002B000AF92BF92CF92DF92EF92FF924B015C011F
:1002C0000E9431016B017C010E9431016C197D0992
:1002D0008E099F09683E734081059105A8F321E0CE
:1002E000821A9108A108B10888EEC80E83E0D81ED2
:1002F000E11CF11C81149104A104B10429F7FF90C1
:10030000EF90DF90CF90BF90AF909F908F90089527
:10031000089590E080E008958F929F92AF92BF92EF
:100320000F931F93CF93DF93CDB7DEB7A1970FB68F
:10033000F894DEBF0FBECDBF19A2423008F44AE0E8
:100340008E010F5D1F4F842E912CB12CA12CA50185
:1003500094010E946805E62FB901CA01EA3044F50C
:10036000E05DD801EE938D01232B242B252B79F70B
:1003700090E080E0109769F0FD0101900020E9F71E
:100380003197AF014A1B5B0BBD0187E691E00E94EC
:100390008700A1960FB6F894DEBF0FBECDBFDF91E8
:1003A000CF911F910F91BF90AF909F908F90089524
:1003B000E95CD7CFFC0101900020E9F73197AF014C
:1003C000481B590BBC0187E691E00C948700CF9342
:1003D000DF93EC0160E08E810E94B40061E08E81C9
:1003E0000E94B40060E08E810E94B4008BE891E02E
:1003F0000197F1F7DF91CF910895CF92DF92EF92BD
:10040000FF920F931F93CF93DF936C017C0187E0E2
:10041000E80EF11CD0E0C0E0062F10E0B8010C2E71
:1004200002C0759567950A94E2F76170F7018191B2
:100430007F010E94B4002196C430D10579F7C6012E
:10044000DF91CF911F910F91FF90EF90DF90CF90B0
:100450000C94E701CF92DF92EF92FF920F931F93DC
:10046000CF93DF93EC01F62E642F8C810E94B400B1
:100470008D818F3F19F060E00E94B4000F2D10E0D5
:100480008F8584FF25C06E0187E0C80ED11CF12C3A
:10049000E12CB8010E2C02C0759567950A94E2F71D
:1004A0006170F60181916F010E94B400FFEFEF1AB5
:1004B000FF0A88E0E816F10461F7CE01DF91CF91E1
:1004C0001F910F91FF90EF90DF90CF900C94E70178
:1004D000B80184E0759567958A95E1F7CE010E9491
:1004E000FD016F2DCE01DF91CF911F910F91FF90F4
:1004F000EF90DF90CF900C94FD0140E0682F87E6ED
:1005000091E00C942A02CF93DF93823029F49091EA
:10051000760198609093760180937A0110927B0126
:1005200080E480937C0180E180937D0180E580936D
:100530007E0161E080916B010E94000180916C015D
:100540008F3F19F061E00E94000161E080916D0130
:100550000E940001C7E6D1E09E01275631408091FC
:10056000760184FD0BC084E090E0219628173907BE
:1005700044F461E08E810E940001EECF88E090E0BB
:10058000F4CF8BE39DE00197F1F760E080916B0180
:100590000E94B40060E080916D010E94B4008091DF
:1005A0006C018F3F19F060E00E94B40080917601E9
:1005B00084FD39C063E087E691E00E94FD01CBE451
:1005C000D6E4CE010197F1F763E087E691E00E945F
:1005D000FD012197F1F763E087E691E00E94FD01BC
:1005E00083E592E00197F1F762E087E691E00E94EF
:1005F000FD018091760180620E947D0284E08093FB
:1006000077018CE00E947D0281E00E947D028BE3F5
:100610009FE10197F1F782E08093780186E0DF9116
:10062000CF910C947D0280620E947D028BE496E45F
:100630000197F1F78091760180620E947D0283E547
:1006400092E00197F1F78091760180620E947D022D
:10065000D0CF90917A01891710F08FEF890FE82F92
:10066000F0E0E959FE4F848980680C947D0241E0F6
:100670000E942A0281E090E00895CF92DF92EF92EB
:10068000FF926C01990FEE08FF08F7FE16C041E0DB
:100690006DE287E691E00E942A0266277727CB0168
:1006A0006C197D098E099F094AE00E948C01019610
:1006B000FF90EF90DF90CF9008954AE0C701B60118
:1006C000FF90EF90DF90CF900C948C011F920F92CF
:1006D0000FB60F9211242F933F938F939F93AF9355
:1006E000BF938091590190915A01A0915B01B09103
:1006F0005C013091580123E0230F2D3758F5019606
:10070000A11DB11D209358018093590190935A0166
:10071000A0935B01B0935C0180915D0190915E01BB
:10072000A0915F01B09160010196A11DB11D809360
:100730005D0190935E01A0935F01B0936001BF9152
:10074000AF919F918F913F912F910F900FBE0F907E
:100750001F90189526E8230F0296A11DB11DD2CF38
:10076000789484B5826084BD84B5816084BD85B58C
:10077000826085BD85B5816085BD80916E00816098
:1007800080936E001092810080918100826080933E
:100790008100809181008160809381008091800040
:1007A0008160809380008091B10084608093B1006B
:1007B0008091B00081608093B00080917A00846065
:1007C00080937A0080917A00826080937A00809191
:1007D0007A00816080937A0080917A0080688093AB
:1007E0007A001092C10061E08BE00E94000161E09C
:1007F0008DE00E94000160E08EE00E94000182E036
:100800000E94830280E00E9429038CE091E00E9414
:10081000DA0181E00E94290388E291E00E94DA0176
:1008200060ED77E080E090E00E94560181E00E9458
:100830007D028BE39FE10197F1F783E2882E912CF3
:10084000A12CB12C9FEA292E90E0392E00E010E077
:1008500080E480937C0080917A00806480937A00A9
:1008600080917A0086FDFCCF8091780060917900BC
:10087000762F682F072E000C880B990B0E94D1054C
:1008800020E030E04AEF5EE30E9435060E949905C1
:1008900070936601609365019B012F5031092432EA
:1008A000310508F05BC02B01770F66087708EFE091
:1008B0004E1A510861087108AFEDB0E0A301920132
:1008C0000E945D05A50194010E943E0569017A011F
:1008D000F0E2CF0ED11CE11CF11CE601D0926401C4
:1008E000C0926301A4E6B0E0A30192010E945D05FD
:1008F000A50194010E943E0530936201209361019D
:1009000061E08BE00E940001CF3FD10529F461E056
:100910008BE00E94B40022C0F10184918330C1F1C8
:1009200048F48130B9F0823071F1C038D1057CF7DC
:1009300060E0EECF8730B1F18830E1F18430A9F783
:1009400080918000806280938000D0928B00C09262
:100950008A0004C084B5806884BDC7BC80916501ED
:10096000909166018F3091056CF5109264011092A0
:100970006301109262011092610160E08BE00E94BD
:10098000B40060E026C084B5806284BDC8BCE6CFF8
:1009900080918000806880938000D0928900C0920E
:1009A0008800DCCF8091B00080688093B000C09256
:1009B000B300D4CF8091B00080628093B000C09229
:1009C000B400CCCFC397ECF261E08BE00E94B4009E
:1009D00061E08DE00E94B40080E00E94290387E37B
:1009E00091E00E94DA0180916501909166010E9478
:1009F0003D036FED87E691E00E94370384E491E0C8
:100A00000E94DA0181E00E94290388E491E00E94BB
:100A1000DA0180916101909162010E943D0383E5BA
:100A200091E00E94DA0168EC70E080E090E00E94C2
:100A300056010115110509F40BCF0E94000008CFE3
:100A4000E7E6F1E01382128284E091E091838083F3
:100A500082E084838FEF858383E0868384E08783CD
:100A600085E0808786E0818787E082871386148609
:100A700015861686178681E00C948302052E97FB57
:100A80001EF400940E94550557FD07D00E9468058A
:100A900007FC03D04EF40C945505509540953095C5
:100AA00021953F4F4F4F5F4F0895909580957095DA
:100AB00061957F4F8F4F9F4F08950E948A05A59F94
:100AC000900DB49F900DA49F800D911D1124089549
:100AD000A1E21A2EAA1BBB1BFD010DC0AA1FBB1F42
:100AE000EE1FFF1FA217B307E407F50720F0A21BB4
:100AF000B30BE40BF50B661F771F881F991F1A9421
:100B000069F760957095809590959B01AC01BD014A
:100B1000CF010895A29FB001B39FC001A39F700DA4
:100B2000811D1124911DB29F700D811D1124911DF5
:100B300008950E94A0056894B1110C942F060895A1
:100B40000E94140688F09F5798F0B92F9927B75143
:100B5000B0F0E1F0660F771F881F991F1AF0BA9561
:100B6000C9F714C0B13091F00E942E06B1E008958B
:100B70000C942E06672F782F8827B85F39F0B93F7D
:100B8000CCF3869577956795B395D9F73EF4909514
:100B90008095709561957F4F8F4F9F4F0895E89492
:100BA00009C097FB3EF490958095709561957F4FB5
:100BB0008F4F9F4F9923A9F0F92F96E9BB27939563
:100BC000F695879577956795B795F111F8CFFAF473
:100BD000BB0F11F460FF1BC06F5F7F4F8F4F9F4FA4
:100BE00016C0882311F096E911C0772321F09EE802
:100BF000872F762F05C0662371F096E8862F70E068
:100C000060E02AF09A95660F771F881FDAF7880F41
:100C10009695879597F9089557FD9058440F551F5D
:100C200059F05F3F71F04795880F97FB991F61F06E
:100C30009F3F79F087950895121613061406551FE5
:100C4000F2CF4695F1DF08C0161617061806991F51
:100C5000F1CF86957105610508940895E894BB2746
:100C600066277727CB0197F908950E9448060C94D0
:100C7000B9060E94AB0638F00E94B20620F0952318
:100C800011F00C94A2060C94A80611240C942F06C3
:100C90000E940C0670F3959FC1F3950F50E0551F0D
:100CA000629FF001729FBB27F00DB11D639FAA27C1
:100CB000F00DB11DAA1F649F6627B00DA11D661F10
:100CC000829F2227B00DA11D621F739FB00DA11D31
:100CD000621F839FA00D611D221F749F3327A00DEB
:100CE000611D231F849F600D211D822F762F6A2F87
:100CF00011249F5750409AF0F1F088234AF0EE0FEC
:100D0000FF1FBB1F661F771F881F91505040A9F718
:100D10009E3F510580F00C94A2060C942F065F3F75
:100D2000E4F3983ED4F3869577956795B795F79554
:100D3000E7959F5FC1F7FE2B880F911D96958795CC
:100D400097F9089597F99F6780E870E060E008954B
:100D50009FEF80EC089500240A94161617061806D3
:100D60000906089500240A941216130614060506AF
:100D70000895092E0394000C11F4882352F0BB0F40
:100D800040F4BF2B11F460FF04C06F5F7F4F8F4FA3
:100D90009F4F0895EE0FFF1F0590F491E02D0994E9
:100DA000F894FFCF00000000370387008901880115
:100DB0002054454D504552415455524520434F4EC5
:100DC000544F4C4C45442046414E20002055534939
:100DD0004E472041524455494E4F0054656D706551
:100DE0007261747572653A004320200046616E207E
:0C0DF00053706565643A00252020200047
:107E0000112484B714BE81FFF0D085E080938100F7
:107E100082E08093C00088E18093C10086E0809377
:107E2000C20080E18093C4008EE0C9D0259A86E02C
:107E300020E33CEF91E0309385002093840096BBD3
:107E4000B09BFECF1D9AA8958150A9F7CC24DD24C4
:107E500088248394B5E0AB2EA1E19A2EF3E0BF2EE7
:107E6000A2D0813461F49FD0082FAFD0023811F036
:107E7000013811F484E001C083E08DD089C08234E0
:107E800011F484E103C0853419F485E0A6D080C0E4
:107E9000853579F488D0E82EFF2485D0082F10E0AE
:107EA000102F00270E291F29000F111F8ED06801E7
:107EB0006FC0863521F484E090D080E0DECF843638
:107EC00009F040C070D06FD0082F6DD080E0C81688
:107ED00080E7D80618F4F601B7BEE895C0E0D1E017
:107EE00062D089930C17E1F7F0E0CF16F0E7DF06D8
:107EF00018F0F601B7BEE89568D007B600FCFDCFD4
:107F0000A601A0E0B1E02C9130E011968C91119780
:107F100090E0982F8827822B932B1296FA010C0160
:107F200087BEE89511244E5F5F4FF1E0A038BF0790
:107F300051F7F601A7BEE89507B600FCFDCF97BE46
:107F4000E89526C08437B1F42ED02DD0F82E2BD052
:107F50003CD0F601EF2C8F010F5F1F4F84911BD097
:107F6000EA94F801C1F70894C11CD11CFA94CF0C13
:107F7000D11C0EC0853739F428D08EE10CD085E9AC
:107F80000AD08FE07ACF813511F488E018D01DD067
:107F900080E101D065CF982F8091C00085FFFCCF94
:107FA0009093C60008958091C00087FFFCCF809118
:107FB000C00084FD01C0A8958091C6000895E0E648
:107FC000F0E098E1908380830895EDDF803219F02E
:107FD00088E0F5DFFFCF84E1DECF1F93182FE3DFCA
:107FE0001150E9F7F2DF1F91089580E0E8DFEE27F6
:047FF000FF270994CA
:027FFE00040479
:00000001FF
